{
  "_format": "hh-sol-artifact-1",
  "contractName": "MyToken",
  "sourceName": "contracts/MyToken.sol",
  "abi": [
    {
      "inputs": [],
      "stateMutability": "nonpayable",
      "type": "constructor"
    },
    {
      "inputs": [
        {
          "internalType": "address",
          "name": "spender",
          "type": "address"
        },
        {
          "internalType": "uint256",
          "name": "allowance",
          "type": "uint256"
        },
        {
          "internalType": "uint256",
          "name": "needed",
          "type": "uint256"
        }
      ],
      "name": "ERC20InsufficientAllowance",
      "type": "error"
    },
    {
      "inputs": [
        {
          "internalType": "address",
          "name": "sender",
          "type": "address"
        },
        {
          "internalType": "uint256",
          "name": "balance",
          "type": "uint256"
        },
        {
          "internalType": "uint256",
          "name": "needed",
          "type": "uint256"
        }
      ],
      "name": "ERC20InsufficientBalance",
      "type": "error"
    },
    {
      "inputs": [
        {
          "internalType": "address",
          "name": "approver",
          "type": "address"
        }
      ],
      "name": "ERC20InvalidApprover",
      "type": "error"
    },
    {
      "inputs": [
        {
          "internalType": "address",
          "name": "receiver",
          "type": "address"
        }
      ],
      "name": "ERC20InvalidReceiver",
      "type": "error"
    },
    {
      "inputs": [
        {
          "internalType": "address",
          "name": "sender",
          "type": "address"
        }
      ],
      "name": "ERC20InvalidSender",
      "type": "error"
    },
    {
      "inputs": [
        {
          "internalType": "address",
          "name": "spender",
          "type": "address"
        }
      ],
      "name": "ERC20InvalidSpender",
      "type": "error"
    },
    {
      "inputs": [
        {
          "internalType": "address",
          "name": "owner",
          "type": "address"
        }
      ],
      "name": "OwnableInvalidOwner",
      "type": "error"
    },
    {
      "inputs": [
        {
          "internalType": "address",
          "name": "account",
          "type": "address"
        }
      ],
      "name": "OwnableUnauthorizedAccount",
      "type": "error"
    },
    {
      "anonymous": false,
      "inputs": [
        {
          "indexed": true,
          "internalType": "address",
          "name": "owner",
          "type": "address"
        },
        {
          "indexed": true,
          "internalType": "address",
          "name": "spender",
          "type": "address"
        },
        {
          "indexed": false,
          "internalType": "uint256",
          "name": "value",
          "type": "uint256"
        }
      ],
      "name": "Approval",
      "type": "event"
    },
    {
      "anonymous": false,
      "inputs": [
        {
          "indexed": true,
          "internalType": "address",
          "name": "uploader",
          "type": "address"
        },
        {
          "indexed": false,
          "internalType": "bytes32",
          "name": "hash",
          "type": "bytes32"
        }
      ],
      "name": "ImageHashDeleted",
      "type": "event"
    },
    {
      "anonymous": false,
      "inputs": [
        {
          "indexed": true,
          "internalType": "address",
          "name": "restorer",
          "type": "address"
        },
        {
          "indexed": false,
          "internalType": "bytes32",
          "name": "hash",
          "type": "bytes32"
        },
        {
          "indexed": false,
          "internalType": "bool",
          "name": "isActive",
          "type": "bool"
        }
      ],
      "name": "ImageHashRestored",
      "type": "event"
    },
    {
      "anonymous": false,
      "inputs": [
        {
          "indexed": true,
          "internalType": "address",
          "name": "uploader",
          "type": "address"
        },
        {
          "indexed": false,
          "internalType": "bytes32",
          "name": "hash",
          "type": "bytes32"
        }
      ],
      "name": "ImageHashUploaded",
      "type": "event"
    },
    {
      "anonymous": false,
      "inputs": [
        {
          "indexed": true,
          "internalType": "address",
          "name": "previousOwner",
          "type": "address"
        },
        {
          "indexed": true,
          "internalType": "address",
          "name": "newOwner",
          "type": "address"
        }
      ],
      "name": "OwnershipTransferred",
      "type": "event"
    },
    {
      "anonymous": false,
      "inputs": [
        {
          "indexed": true,
          "internalType": "address",
          "name": "from",
          "type": "address"
        },
        {
          "indexed": true,
          "internalType": "address",
          "name": "to",
          "type": "address"
        },
        {
          "indexed": false,
          "internalType": "uint256",
          "name": "value",
          "type": "uint256"
        }
      ],
      "name": "Transfer",
      "type": "event"
    },
    {
      "inputs": [
        {
          "internalType": "bytes32",
          "name": "",
          "type": "bytes32"
        }
      ],
      "name": "activeHashes",
      "outputs": [
        {
          "internalType": "bool",
          "name": "",
          "type": "bool"
        }
      ],
      "stateMutability": "view",
      "type": "function"
    },
    {
      "inputs": [
        {
          "internalType": "uint256",
          "name": "",
          "type": "uint256"
        }
      ],
      "name": "allImageHashes",
      "outputs": [
        {
          "internalType": "bytes32",
          "name": "",
          "type": "bytes32"
        }
      ],
      "stateMutability": "view",
      "type": "function"
    },
    {
      "inputs": [
        {
          "internalType": "address",
          "name": "owner",
          "type": "address"
        },
        {
          "internalType": "address",
          "name": "spender",
          "type": "address"
        }
      ],
      "name": "allowance",
      "outputs": [
        {
          "internalType": "uint256",
          "name": "",
          "type": "uint256"
        }
      ],
      "stateMutability": "view",
      "type": "function"
    },
    {
      "inputs": [
        {
          "internalType": "address",
          "name": "spender",
          "type": "address"
        },
        {
          "internalType": "uint256",
          "name": "value",
          "type": "uint256"
        }
      ],
      "name": "approve",
      "outputs": [
        {
          "internalType": "bool",
          "name": "",
          "type": "bool"
        }
      ],
      "stateMutability": "nonpayable",
      "type": "function"
    },
    {
      "inputs": [
        {
          "internalType": "address",
          "name": "account",
          "type": "address"
        }
      ],
      "name": "balanceOf",
      "outputs": [
        {
          "internalType": "uint256",
          "name": "",
          "type": "uint256"
        }
      ],
      "stateMutability": "view",
      "type": "function"
    },
    {
      "inputs": [
        {
          "internalType": "bytes32[]",
          "name": "hashes",
          "type": "bytes32[]"
        },
        {
          "internalType": "bool[]",
          "name": "activeStatuses",
          "type": "bool[]"
        }
      ],
      "name": "batchRestoreHashes",
      "outputs": [],
      "stateMutability": "nonpayable",
      "type": "function"
    },
    {
      "inputs": [],
      "name": "decimals",
      "outputs": [
        {
          "internalType": "uint8",
          "name": "",
          "type": "uint8"
        }
      ],
      "stateMutability": "view",
      "type": "function"
    },
    {
      "inputs": [
        {
          "internalType": "bytes32",
          "name": "hash",
          "type": "bytes32"
        }
      ],
      "name": "deleteImageHash",
      "outputs": [],
      "stateMutability": "nonpayable",
      "type": "function"
    },
    {
      "inputs": [
        {
          "internalType": "bytes32",
          "name": "",
          "type": "bytes32"
        }
      ],
      "name": "deletedHashes",
      "outputs": [
        {
          "internalType": "bool",
          "name": "",
          "type": "bool"
        }
      ],
      "stateMutability": "view",
      "type": "function"
    },
    {
      "inputs": [],
      "name": "getActiveHashCount",
      "outputs": [
        {
          "internalType": "uint256",
          "name": "",
          "type": "uint256"
        }
      ],
      "stateMutability": "view",
      "type": "function"
    },
    {
      "inputs": [],
      "name": "getAllImageHashes",
      "outputs": [
        {
          "internalType": "bytes32[]",
          "name": "",
          "type": "bytes32[]"
        }
      ],
      "stateMutability": "view",
      "type": "function"
    },
    {
      "inputs": [],
      "name": "getHashCount",
      "outputs": [
        {
          "internalType": "uint256",
          "name": "",
          "type": "uint256"
        }
      ],
      "stateMutability": "view",
      "type": "function"
    },
    {
      "inputs": [
        {
          "internalType": "bytes32",
          "name": "hash",
          "type": "bytes32"
        }
      ],
      "name": "isImageHashActive",
      "outputs": [
        {
          "internalType": "bool",
          "name": "",
          "type": "bool"
        }
      ],
      "stateMutability": "view",
      "type": "function"
    },
    {
      "inputs": [],
      "name": "name",
      "outputs": [
        {
          "internalType": "string",
          "name": "",
          "type": "string"
        }
      ],
      "stateMutability": "view",
      "type": "function"
    },
    {
      "inputs": [],
      "name": "owner",
      "outputs": [
        {
          "internalType": "address",
          "name": "",
          "type": "address"
        }
      ],
      "stateMutability": "view",
      "type": "function"
    },
    {
      "inputs": [],
      "name": "renounceOwnership",
      "outputs": [],
      "stateMutability": "nonpayable",
      "type": "function"
    },
    {
      "inputs": [
        {
          "internalType": "bytes32",
          "name": "hash",
          "type": "bytes32"
        },
        {
          "internalType": "bool",
          "name": "isActive",
          "type": "bool"
        }
      ],
      "name": "restoreHash",
      "outputs": [],
      "stateMutability": "nonpayable",
      "type": "function"
    },
    {
      "inputs": [],
      "name": "symbol",
      "outputs": [
        {
          "internalType": "string",
          "name": "",
          "type": "string"
        }
      ],
      "stateMutability": "view",
      "type": "function"
    },
    {
      "inputs": [],
      "name": "totalSupply",
      "outputs": [
        {
          "internalType": "uint256",
          "name": "",
          "type": "uint256"
        }
      ],
      "stateMutability": "view",
      "type": "function"
    },
    {
      "inputs": [
        {
          "internalType": "address",
          "name": "to",
          "type": "address"
        },
        {
          "internalType": "uint256",
          "name": "value",
          "type": "uint256"
        }
      ],
      "name": "transfer",
      "outputs": [
        {
          "internalType": "bool",
          "name": "",
          "type": "bool"
        }
      ],
      "stateMutability": "nonpayable",
      "type": "function"
    },
    {
      "inputs": [
        {
          "internalType": "address",
          "name": "from",
          "type": "address"
        },
        {
          "internalType": "address",
          "name": "to",
          "type": "address"
        },
        {
          "internalType": "uint256",
          "name": "value",
          "type": "uint256"
        }
      ],
      "name": "transferFrom",
      "outputs": [
        {
          "internalType": "bool",
          "name": "",
          "type": "bool"
        }
      ],
      "stateMutability": "nonpayable",
      "type": "function"
    },
    {
      "inputs": [
        {
          "internalType": "address",
          "name": "newOwner",
          "type": "address"
        }
      ],
      "name": "transferOwnership",
      "outputs": [],
      "stateMutability": "nonpayable",
      "type": "function"
    },
    {
      "inputs": [
        {
          "internalType": "bytes32",
          "name": "hash",
          "type": "bytes32"
        }
      ],
      "name": "uploadImageHash",
      "outputs": [],
      "stateMutability": "nonpayable",
      "type": "function"
    }
  ],
  "bytecode": "0x608060405234801561001057600080fd5b50336040518060400160405280600781526020017f4d79546f6b656e000000000000000000000000000000000000000000000000008152506040518060400160405280600381526020017f4d544b0000000000000000000000000000000000000000000000000000000000815250816003908161008d919061043d565b50806004908161009d919061043d565b505050600073ffffffffffffffffffffffffffffffffffffffff168173ffffffffffffffffffffffffffffffffffffffff16036101125760006040517f1e4fbdf70000000000000000000000000000000000000000000000000000000081526004016101099190610550565b60405180910390fd5b6101218161012760201b60201c565b5061056b565b6000600560009054906101000a900473ffffffffffffffffffffffffffffffffffffffff16905081600560006101000a81548173ffffffffffffffffffffffffffffffffffffffff021916908373ffffffffffffffffffffffffffffffffffffffff1602179055508173ffffffffffffffffffffffffffffffffffffffff168173ffffffffffffffffffffffffffffffffffffffff167f8be0079c531659141344cd1fd0a4f28419497f9722a3daafe3b4186f6b6457e060405160405180910390a35050565b600081519050919050565b7f4e487b7100000000000000000000000000000000000000000000000000000000600052604160045260246000fd5b7f4e487b7100000000000000000000000000000000000000000000000000000000600052602260045260246000fd5b6000600282049050600182168061026e57607f821691505b60208210810361028157610280610227565b5b50919050565b60008190508160005260206000209050919050565b60006020601f8301049050919050565b600082821b905092915050565b6000600883026102e97fffffffffffffffffffffffffffffffffffffffffffffffffffffffffffffffff826102ac565b6102f386836102ac565b95508019841693508086168417925050509392505050565b6000819050919050565b6000819050919050565b600061033a6103356103308461030b565b610315565b61030b565b9050919050565b6000819050919050565b6103548361031f565b61036861036082610341565b8484546102b9565b825550505050565b600090565b61037d610370565b61038881848461034b565b505050565b5b818110156103ac576103a1600082610375565b60018101905061038e565b5050565b601f8211156103f1576103c281610287565b6103cb8461029c565b810160208510156103da578190505b6103ee6103e68561029c565b83018261038d565b50505b505050565b600082821c905092915050565b6000610414600019846008026103f6565b1980831691505092915050565b600061042d8383610403565b9150826002028217905092915050565b610446826101ed565b67ffffffffffffffff81111561045f5761045e6101f8565b5b6104698254610256565b6104748282856103b0565b600060209050601f8311600181146104a75760008415610495578287015190505b61049f8582610421565b865550610507565b601f1984166104b586610287565b60005b828110156104dd578489015182556001820191506020850194506020810190506104b8565b868310156104fa57848901516104f6601f891682610403565b8355505b6001600288020188555050505b505050505050565b600073ffffffffffffffffffffffffffffffffffffffff82169050919050565b600061053a8261050f565b9050919050565b61054a8161052f565b82525050565b60006020820190506105656000830184610541565b92915050565b611e9a8061057a6000396000f3fe608060405234801561001057600080fd5b506004361061014d5760003560e01c806370a08231116100c3578063a9059cbb1161007c578063a9059cbb146103a4578063ab480cf2146103d4578063cfb8ba6114610404578063d4e984c214610420578063dd62ed3e1461043c578063f2fde38b1461046c5761014d565b806370a08231146102f2578063715018a61461032257806383b3847a1461032c578063882829361461034a5780638da5cb5b1461036857806395d89b41146103865761014d565b80634274495111610115578063427449511461020c5780634a3aaf0d1461023c5780634b243524146102585780635657bf2e1461027457806361e89b5b1461029257806363c2a366146102c25761014d565b806306fdde0314610152578063095ea7b31461017057806318160ddd146101a057806323b872dd146101be578063313ce567146101ee575b600080fd5b61015a610488565b604051610167919061152a565b60405180910390f35b61018a600480360381019061018591906115ea565b61051a565b6040516101979190611645565b60405180910390f35b6101a861053d565b6040516101b5919061166f565b60405180910390f35b6101d860048036038101906101d3919061168a565b610547565b6040516101e59190611645565b60405180910390f35b6101f6610576565b60405161020391906116f9565b60405180910390f35b6102266004803603810190610221919061174a565b61057f565b6040516102339190611645565b60405180910390f35b6102566004803603810190610251919061174a565b61059f565b005b610272600480360381019061026d91906117a3565b6106d2565b005b61027c610800565b60405161028991906118a1565b60405180910390f35b6102ac60048036038101906102a7919061174a565b610858565b6040516102b99190611645565b60405180910390f35b6102dc60048036038101906102d7919061174a565b6108ac565b6040516102e99190611645565b60405180910390f35b61030c600480360381019061030791906118c3565b6108cc565b604051610319919061166f565b60405180910390f35b61032a610914565b005b610334610928565b604051610341919061166f565b60405180910390f35b610352610935565b60405161035f919061166f565b60405180910390f35b61037061099c565b60405161037d91906118ff565b60405180910390f35b61038e6109c6565b60405161039b919061152a565b60405180910390f35b6103be60048036038101906103b991906115ea565b610a58565b6040516103cb9190611645565b60405180910390f35b6103ee60048036038101906103e9919061191a565b610a7b565b6040516103fb9190611956565b60405180910390f35b61041e60048036038101906104199190611a2c565b610a9f565b005b61043a6004803603810190610435919061174a565b610b5b565b005b61045660048036038101906104519190611aad565b610ca1565b604051610463919061166f565b60405180910390f35b610486600480360381019061048191906118c3565b610d28565b005b60606003805461049790611b1c565b80601f01602080910402602001604051908101604052809291908181526020018280546104c390611b1c565b80156105105780601f106104e557610100808354040283529160200191610510565b820191906000526020600020905b8154815290600101906020018083116104f357829003601f168201915b5050505050905090565b600080610525610dae565b9050610532818585610db6565b600191505092915050565b6000600254905090565b600080610552610dae565b905061055f858285610dc8565b61056a858585610e5d565b60019150509392505050565b60006012905090565b60066020528060005260406000206000915054906101000a900460ff1681565b6006600082815260200190815260200160002060009054906101000a900460ff1615610600576040517f08c379a00000000000000000000000000000000000000000000000000000000081526004016105f790611b99565b60405180910390fd5b60016006600083815260200190815260200160002060006101000a81548160ff021916908315150217905550600781908060018154018082558091505060019003906000526020600020016000909190919091505560006008600083815260200190815260200160002060006101000a81548160ff0219169083151502179055503373ffffffffffffffffffffffffffffffffffffffff167f93f3fd994a627fe49297556da3b09f7d857db8f003e74dfd182b0eb838514c26826040516106c79190611956565b60405180910390a250565b6106da610f51565b6006600083815260200190815260200160002060009054906101000a900460ff1615801561072657506008600083815260200190815260200160002060009054906101000a900460ff16155b156107555760078290806001815401808255809150506001900390600052602060002001600090919091909150555b806006600084815260200190815260200160002060006101000a81548160ff02191690831515021790555080156008600084815260200190815260200160002060006101000a81548160ff0219169083151502179055503373ffffffffffffffffffffffffffffffffffffffff167fc75742230ea3341c997ff9ab66b8c22c8087c8a57d07f87157bd324afeb46f1583836040516107f4929190611bb9565b60405180910390a25050565b6060600780548060200260200160405190810160405280929190818152602001828054801561084e57602002820191906000526020600020905b81548152602001906001019080831161083a575b5050505050905090565b60006006600083815260200190815260200160002060009054906101000a900460ff1680156108a557506008600083815260200190815260200160002060009054906101000a900460ff16155b9050919050565b60086020528060005260406000206000915054906101000a900460ff1681565b60008060008373ffffffffffffffffffffffffffffffffffffffff1673ffffffffffffffffffffffffffffffffffffffff168152602001908152602001600020549050919050565b61091c610f51565b6109266000610fd8565b565b6000600780549050905090565b6000806000905060005b600780549050811015610994576109736007828154811061096357610962611be2565b5b9060005260206000200154610858565b1561098757818061098390611c40565b9250505b808060010191505061093f565b508091505090565b6000600560009054906101000a900473ffffffffffffffffffffffffffffffffffffffff16905090565b6060600480546109d590611b1c565b80601f0160208091040260200160405190810160405280929190818152602001828054610a0190611b1c565b8015610a4e5780601f10610a2357610100808354040283529160200191610a4e565b820191906000526020600020905b815481529060010190602001808311610a3157829003601f168201915b5050505050905090565b600080610a63610dae565b9050610a70818585610e5d565b600191505092915050565b60078181548110610a8b57600080fd5b906000526020600020016000915090505481565b610aa7610f51565b818190508484905014610aef576040517f08c379a0000000000000000000000000000000000000000000000000000000008152600401610ae690611cd4565b60405180910390fd5b60005b84849050811015610b5457610b47858583818110610b1357610b12611be2565b5b90506020020135848484818110610b2d57610b2c611be2565b5b9050602002016020810190610b429190611cf4565b6106d2565b8080600101915050610af2565b5050505050565b610b63610f51565b6006600082815260200190815260200160002060009054906101000a900460ff16610bc3576040517f08c379a0000000000000000000000000000000000000000000000000000000008152600401610bba90611d6d565b60405180910390fd5b6008600082815260200190815260200160002060009054906101000a900460ff1615610c24576040517f08c379a0000000000000000000000000000000000000000000000000000000008152600401610c1b90611dd9565b60405180910390fd5b60016008600083815260200190815260200160002060006101000a81548160ff0219169083151502179055503373ffffffffffffffffffffffffffffffffffffffff167f2029f188f5dc38f6a2a1f710bfdd1f6fe6654106680e6e9fa7d8a8e6ba5c4ee982604051610c969190611956565b60405180910390a250565b6000600160008473ffffffffffffffffffffffffffffffffffffffff1673ffffffffffffffffffffffffffffffffffffffff16815260200190815260200160002060008373ffffffffffffffffffffffffffffffffffffffff1673ffffffffffffffffffffffffffffffffffffffff16815260200190815260200160002054905092915050565b610d30610f51565b600073ffffffffffffffffffffffffffffffffffffffff168173ffffffffffffffffffffffffffffffffffffffff1603610da25760006040517f1e4fbdf7000000000000000000000000000000000000000000000000000000008152600401610d9991906118ff565b60405180910390fd5b610dab81610fd8565b50565b600033905090565b610dc3838383600161109e565b505050565b6000610dd48484610ca1565b90507fffffffffffffffffffffffffffffffffffffffffffffffffffffffffffffffff811015610e575781811015610e47578281836040517ffb8f41b2000000000000000000000000000000000000000000000000000000008152600401610e3e93929190611df9565b60405180910390fd5b610e568484848403600061109e565b5b50505050565b600073ffffffffffffffffffffffffffffffffffffffff168373ffffffffffffffffffffffffffffffffffffffff1603610ecf5760006040517f96c6fd1e000000000000000000000000000000000000000000000000000000008152600401610ec691906118ff565b60405180910390fd5b600073ffffffffffffffffffffffffffffffffffffffff168273ffffffffffffffffffffffffffffffffffffffff1603610f415760006040517fec442f05000000000000000000000000000000000000000000000000000000008152600401610f3891906118ff565b60405180910390fd5b610f4c838383611275565b505050565b610f59610dae565b73ffffffffffffffffffffffffffffffffffffffff16610f7761099c565b73ffffffffffffffffffffffffffffffffffffffff1614610fd657610f9a610dae565b6040517f118cdaa7000000000000000000000000000000000000000000000000000000008152600401610fcd91906118ff565b60405180910390fd5b565b6000600560009054906101000a900473ffffffffffffffffffffffffffffffffffffffff16905081600560006101000a81548173ffffffffffffffffffffffffffffffffffffffff021916908373ffffffffffffffffffffffffffffffffffffffff1602179055508173ffffffffffffffffffffffffffffffffffffffff168173ffffffffffffffffffffffffffffffffffffffff167f8be0079c531659141344cd1fd0a4f28419497f9722a3daafe3b4186f6b6457e060405160405180910390a35050565b600073ffffffffffffffffffffffffffffffffffffffff168473ffffffffffffffffffffffffffffffffffffffff16036111105760006040517fe602df0500000000000000000000000000000000000000000000000000000000815260040161110791906118ff565b60405180910390fd5b600073ffffffffffffffffffffffffffffffffffffffff168373ffffffffffffffffffffffffffffffffffffffff16036111825760006040517f94280d6200000000000000000000000000000000000000000000000000000000815260040161117991906118ff565b60405180910390fd5b81600160008673ffffffffffffffffffffffffffffffffffffffff1673ffffffffffffffffffffffffffffffffffffffff16815260200190815260200160002060008573ffffffffffffffffffffffffffffffffffffffff1673ffffffffffffffffffffffffffffffffffffffff16815260200190815260200160002081905550801561126f578273ffffffffffffffffffffffffffffffffffffffff168473ffffffffffffffffffffffffffffffffffffffff167f8c5be1e5ebec7d5bd14f71427d1e84f3dd0314c0f7b2291e5b200ac8c7c3b92584604051611266919061166f565b60405180910390a35b50505050565b600073ffffffffffffffffffffffffffffffffffffffff168373ffffffffffffffffffffffffffffffffffffffff16036112c75780600260008282546112bb9190611e30565b9250508190555061139a565b60008060008573ffffffffffffffffffffffffffffffffffffffff1673ffffffffffffffffffffffffffffffffffffffff16815260200190815260200160002054905081811015611353578381836040517fe450d38c00000000000000000000000000000000000000000000000000000000815260040161134a93929190611df9565b60405180910390fd5b8181036000808673ffffffffffffffffffffffffffffffffffffffff1673ffffffffffffffffffffffffffffffffffffffff16815260200190815260200160002081905550505b600073ffffffffffffffffffffffffffffffffffffffff168273ffffffffffffffffffffffffffffffffffffffff16036113e35780600260008282540392505081905550611430565b806000808473ffffffffffffffffffffffffffffffffffffffff1673ffffffffffffffffffffffffffffffffffffffff168152602001908152602001600020600082825401925050819055505b8173ffffffffffffffffffffffffffffffffffffffff168373ffffffffffffffffffffffffffffffffffffffff167fddf252ad1be2c89b69c2b068fc378daa952ba7f163c4a11628f55a4df523b3ef8360405161148d919061166f565b60405180910390a3505050565b600081519050919050565b600082825260208201905092915050565b60005b838110156114d45780820151818401526020810190506114b9565b60008484015250505050565b6000601f19601f8301169050919050565b60006114fc8261149a565b61150681856114a5565b93506115168185602086016114b6565b61151f816114e0565b840191505092915050565b6000602082019050818103600083015261154481846114f1565b905092915050565b600080fd5b600080fd5b600073ffffffffffffffffffffffffffffffffffffffff82169050919050565b600061158182611556565b9050919050565b61159181611576565b811461159c57600080fd5b50565b6000813590506115ae81611588565b92915050565b6000819050919050565b6115c7816115b4565b81146115d257600080fd5b50565b6000813590506115e4816115be565b92915050565b600080604083850312156116015761160061154c565b5b600061160f8582860161159f565b9250506020611620858286016115d5565b9150509250929050565b60008115159050919050565b61163f8161162a565b82525050565b600060208201905061165a6000830184611636565b92915050565b611669816115b4565b82525050565b60006020820190506116846000830184611660565b92915050565b6000806000606084860312156116a3576116a261154c565b5b60006116b18682870161159f565b93505060206116c28682870161159f565b92505060406116d3868287016115d5565b9150509250925092565b600060ff82169050919050565b6116f3816116dd565b82525050565b600060208201905061170e60008301846116ea565b92915050565b6000819050919050565b61172781611714565b811461173257600080fd5b50565b6000813590506117448161171e565b92915050565b6000602082840312156117605761175f61154c565b5b600061176e84828501611735565b91505092915050565b6117808161162a565b811461178b57600080fd5b50565b60008135905061179d81611777565b92915050565b600080604083850312156117ba576117b961154c565b5b60006117c885828601611735565b92505060206117d98582860161178e565b9150509250929050565b600081519050919050565b600082825260208201905092915050565b6000819050602082019050919050565b61181881611714565b82525050565b600061182a838361180f565b60208301905092915050565b6000602082019050919050565b600061184e826117e3565b61185881856117ee565b9350611863836117ff565b8060005b8381101561189457815161187b888261181e565b975061188683611836565b925050600181019050611867565b5085935050505092915050565b600060208201905081810360008301526118bb8184611843565b905092915050565b6000602082840312156118d9576118d861154c565b5b60006118e78482850161159f565b91505092915050565b6118f981611576565b82525050565b600060208201905061191460008301846118f0565b92915050565b6000602082840312156119305761192f61154c565b5b600061193e848285016115d5565b91505092915050565b61195081611714565b82525050565b600060208201905061196b6000830184611947565b92915050565b600080fd5b600080fd5b600080fd5b60008083601f84011261199657611995611971565b5b8235905067ffffffffffffffff8111156119b3576119b2611976565b5b6020830191508360208202830111156119cf576119ce61197b565b5b9250929050565b60008083601f8401126119ec576119eb611971565b5b8235905067ffffffffffffffff811115611a0957611a08611976565b5b602083019150836020820283011115611a2557611a2461197b565b5b9250929050565b60008060008060408587031215611a4657611a4561154c565b5b600085013567ffffffffffffffff811115611a6457611a63611551565b5b611a7087828801611980565b9450945050602085013567ffffffffffffffff811115611a9357611a92611551565b5b611a9f878288016119d6565b925092505092959194509250565b60008060408385031215611ac457611ac361154c565b5b6000611ad28582860161159f565b9250506020611ae38582860161159f565b9150509250929050565b7f4e487b7100000000000000000000000000000000000000000000000000000000600052602260045260246000fd5b60006002820490506001821680611b3457607f821691505b602082108103611b4757611b46611aed565b5b50919050565b7f4861736820616c72656164792065786973747300000000000000000000000000600082015250565b6000611b836013836114a5565b9150611b8e82611b4d565b602082019050919050565b60006020820190508181036000830152611bb281611b76565b9050919050565b6000604082019050611bce6000830185611947565b611bdb6020830184611636565b9392505050565b7f4e487b7100000000000000000000000000000000000000000000000000000000600052603260045260246000fd5b7f4e487b7100000000000000000000000000000000000000000000000000000000600052601160045260246000fd5b6000611c4b826115b4565b91507fffffffffffffffffffffffffffffffffffffffffffffffffffffffffffffffff8203611c7d57611c7c611c11565b5b600182019050919050565b7f4172726179206c656e677468206d69736d617463680000000000000000000000600082015250565b6000611cbe6015836114a5565b9150611cc982611c88565b602082019050919050565b60006020820190508181036000830152611ced81611cb1565b9050919050565b600060208284031215611d0a57611d0961154c565b5b6000611d188482850161178e565b91505092915050565b7f4861736820646f6573206e6f7420657869737400000000000000000000000000600082015250565b6000611d576013836114a5565b9150611d6282611d21565b602082019050919050565b60006020820190508181036000830152611d8681611d4a565b9050919050565b7f4861736820697320616c72656164792064656c65746564000000000000000000600082015250565b6000611dc36017836114a5565b9150611dce82611d8d565b602082019050919050565b60006020820190508181036000830152611df281611db6565b9050919050565b6000606082019050611e0e60008301866118f0565b611e1b6020830185611660565b611e286040830184611660565b949350505050565b6000611e3b826115b4565b9150611e46836115b4565b9250828201905080821115611e5e57611e5d611c11565b5b9291505056fea2646970667358221220287d2309a4bd0fa2c0dbef241460f76c162f45c9e485adc857ec184cbbc131bb64736f6c634300081c0033",
  "linkReferences": {},
  "deployedLinkReferences": {}
}